{
  "contractName": "MLM",
  "abi": [
    {
      "constant": true,
      "inputs": [
        {
          "name": "",
          "type": "uint256"
        }
      ],
      "name": "users_ids",
      "outputs": [
        {
          "name": "",
          "type": "address"
        }
      ],
      "payable": false,
      "stateMutability": "view",
      "type": "function"
    },
    {
      "constant": true,
      "inputs": [],
      "name": "mainWallet",
      "outputs": [
        {
          "name": "",
          "type": "uint256"
        }
      ],
      "payable": false,
      "stateMutability": "view",
      "type": "function"
    },
    {
      "constant": true,
      "inputs": [],
      "name": "distributionWallet",
      "outputs": [
        {
          "name": "",
          "type": "uint256"
        }
      ],
      "payable": false,
      "stateMutability": "view",
      "type": "function"
    },
    {
      "constant": true,
      "inputs": [],
      "name": "personalWallet",
      "outputs": [
        {
          "name": "",
          "type": "uint256"
        }
      ],
      "payable": false,
      "stateMutability": "view",
      "type": "function"
    },
    {
      "constant": true,
      "inputs": [],
      "name": "ownerWallet",
      "outputs": [
        {
          "name": "",
          "type": "address"
        }
      ],
      "payable": false,
      "stateMutability": "view",
      "type": "function"
    },
    {
      "constant": true,
      "inputs": [
        {
          "name": "",
          "type": "address"
        }
      ],
      "name": "users",
      "outputs": [
        {
          "name": "id",
          "type": "uint256"
        },
        {
          "name": "balanceReceived",
          "type": "uint256"
        },
        {
          "name": "inviter",
          "type": "address"
        },
        {
          "name": "totalReferals",
          "type": "uint256"
        },
        {
          "name": "dailyReferals",
          "type": "uint256"
        },
        {
          "name": "uplinesSize",
          "type": "uint256"
        },
        {
          "name": "level",
          "type": "uint256"
        },
        {
          "name": "paymentReceivedFor",
          "type": "uint256"
        },
        {
          "name": "upgradeAmountReceived",
          "type": "uint256"
        },
        {
          "name": "retopupWallet",
          "type": "uint256"
        },
        {
          "name": "levelsPurchased",
          "type": "uint256"
        },
        {
          "name": "autoBuyLevelWallet",
          "type": "uint256"
        },
        {
          "name": "rewardWallet",
          "type": "uint256"
        },
        {
          "name": "isExist",
          "type": "bool"
        }
      ],
      "payable": false,
      "stateMutability": "view",
      "type": "function"
    },
    {
      "constant": true,
      "inputs": [
        {
          "name": "",
          "type": "uint256"
        }
      ],
      "name": "levels",
      "outputs": [
        {
          "name": "",
          "type": "uint256"
        }
      ],
      "payable": false,
      "stateMutability": "view",
      "type": "function"
    },
    {
      "constant": true,
      "inputs": [],
      "name": "entryFees",
      "outputs": [
        {
          "name": "",
          "type": "uint256"
        }
      ],
      "payable": false,
      "stateMutability": "view",
      "type": "function"
    },
    {
      "constant": true,
      "inputs": [],
      "name": "totalUsers",
      "outputs": [
        {
          "name": "",
          "type": "uint256"
        }
      ],
      "payable": false,
      "stateMutability": "view",
      "type": "function"
    },
    {
      "inputs": [],
      "payable": false,
      "stateMutability": "nonpayable",
      "type": "constructor"
    },
    {
      "anonymous": false,
      "inputs": [
        {
          "indexed": true,
          "name": "addr",
          "type": "address"
        },
        {
          "indexed": true,
          "name": "inviter",
          "type": "address"
        },
        {
          "indexed": false,
          "name": "id",
          "type": "uint256"
        }
      ],
      "name": "Register",
      "type": "event"
    },
    {
      "anonymous": false,
      "inputs": [
        {
          "indexed": true,
          "name": "addr",
          "type": "address"
        },
        {
          "indexed": true,
          "name": "upline",
          "type": "address"
        },
        {
          "indexed": false,
          "name": "level",
          "type": "uint8"
        },
        {
          "indexed": false,
          "name": "expires",
          "type": "uint40"
        }
      ],
      "name": "BuyLevel",
      "type": "event"
    },
    {
      "anonymous": false,
      "inputs": [
        {
          "indexed": true,
          "name": "_user",
          "type": "address"
        },
        {
          "indexed": false,
          "name": "_level",
          "type": "uint256"
        },
        {
          "indexed": false,
          "name": "_time",
          "type": "uint256"
        }
      ],
      "name": "buyLevelEvent",
      "type": "event"
    },
    {
      "constant": false,
      "inputs": [
        {
          "name": "_inviter_id",
          "type": "uint256"
        }
      ],
      "name": "register",
      "outputs": [],
      "payable": true,
      "stateMutability": "payable",
      "type": "function"
    },
    {
      "constant": false,
      "inputs": [
        {
          "name": "_level",
          "type": "uint256"
        }
      ],
      "name": "buyLevel",
      "outputs": [],
      "payable": true,
      "stateMutability": "payable",
      "type": "function"
    },
    {
      "constant": false,
      "inputs": [],
      "name": "autoBuyLevel",
      "outputs": [],
      "payable": false,
      "stateMutability": "nonpayable",
      "type": "function"
    },
    {
      "constant": true,
      "inputs": [
        {
          "name": "_add",
          "type": "address"
        }
      ],
      "name": "getCurrentLevel",
      "outputs": [
        {
          "name": "",
          "type": "uint256"
        }
      ],
      "payable": false,
      "stateMutability": "view",
      "type": "function"
    },
    {
      "constant": true,
      "inputs": [
        {
          "name": "_add",
          "type": "address"
        }
      ],
      "name": "getBalance",
      "outputs": [
        {
          "name": "",
          "type": "uint256"
        }
      ],
      "payable": false,
      "stateMutability": "view",
      "type": "function"
    },
    {
      "constant": true,
      "inputs": [
        {
          "name": "_add",
          "type": "address"
        }
      ],
      "name": "getPaymentReceivedFor",
      "outputs": [
        {
          "name": "",
          "type": "uint256"
        }
      ],
      "payable": false,
      "stateMutability": "view",
      "type": "function"
    },
    {
      "constant": true,
      "inputs": [
        {
          "name": "_add",
          "type": "address"
        }
      ],
      "name": "getReferrals",
      "outputs": [
        {
          "name": "",
          "type": "address[]"
        }
      ],
      "payable": false,
      "stateMutability": "view",
      "type": "function"
    },
    {
      "constant": true,
      "inputs": [
        {
          "name": "_add",
          "type": "address"
        }
      ],
      "name": "getUplines",
      "outputs": [
        {
          "name": "",
          "type": "address[]"
        }
      ],
      "payable": false,
      "stateMutability": "view",
      "type": "function"
    },
    {
      "constant": false,
      "inputs": [],
      "name": "retopUp",
      "outputs": [],
      "payable": false,
      "stateMutability": "nonpayable",
      "type": "function"
    },
    {
      "constant": false,
      "inputs": [
        {
          "name": "_winner1",
          "type": "address"
        },
        {
          "name": "_winner2",
          "type": "address"
        },
        {
          "name": "_winner3",
          "type": "address"
        }
      ],
      "name": "giveReward",
      "outputs": [],
      "payable": false,
      "stateMutability": "nonpayable",
      "type": "function"
    },
    {
      "constant": true,
      "inputs": [],
      "name": "getTotalUsers",
      "outputs": [
        {
          "name": "",
          "type": "uint256"
        }
      ],
      "payable": false,
      "stateMutability": "view",
      "type": "function"
    }
  ],
  "bytecode": "0x60806040523480156200001157600080fd5b506000600181905550662386f26fc10000600681905550336000806101000a81548173ffffffffffffffffffffffffffffffffffffffff021916908373ffffffffffffffffffffffffffffffffffffffff1602179055506005662386f26fc10000908060018154018082558091505090600182039060005260206000200160009091929091909150555060056658d15e17628000908060018154018082558091505090600182039060005260206000200160009091929091909150555060056611c37937e080009080600181540180825580915050906001820390600052602060002001600090919290919091505550600567010a741a462780009080600181540180825580915050906001820390600052602060002001600090919290919091505550600567016345785d8a0000908060018154018082558091505090600182039060005260206000200160009091929091909150555060056701bc16d674ec800090806001815401808255809150509060018203906000526020600020016000909192909190915055506005670214e8348c4f00009080600181540180825580915050906001820390600052602060002001600090919290919091505550600567026db992a3b18000908060018154018082558091505090600182039060005260206000200160009091929091909150555060056702c68af0bb1400009080600181540180825580915050906001820390600052602060002001600090919290919091505550600567031f5c4ed2768000908060018154018082558091505090600182039060005260206000200160009091929091909150555060056703782dace9d900009080600181540180825580915050906001820390600052602060002001600090919290919091505550620002bd336000620003ae640100000000026401000000009004565b600a600760003373ffffffffffffffffffffffffffffffffffffffff1673ffffffffffffffffffffffffffffffffffffffff168152602001908152602001600020600c01819055506001600760003373ffffffffffffffffffffffffffffffffffffffff1673ffffffffffffffffffffffffffffffffffffffff168152602001908152602001600020600801819055506001600760003373ffffffffffffffffffffffffffffffffffffffff1673ffffffffffffffffffffffffffffffffffffffff168152602001908152602001600020600f0160006101000a81548160ff021916908315150217905550620008a9565b600160008154809291906001019190505550600154600760008473ffffffffffffffffffffffffffffffffffffffff1673ffffffffffffffffffffffffffffffffffffffff1681526020019081526020016000206000018190555080600760008473ffffffffffffffffffffffffffffffffffffffff1673ffffffffffffffffffffffffffffffffffffffff16815260200190815260200160002060020160006101000a81548173ffffffffffffffffffffffffffffffffffffffff021916908373ffffffffffffffffffffffffffffffffffffffff1602179055508160086000600154815260200190815260200160002060006101000a81548173ffffffffffffffffffffffffffffffffffffffff021916908373ffffffffffffffffffffffffffffffffffffffff1602179055506000600760008473ffffffffffffffffffffffffffffffffffffffff1673ffffffffffffffffffffffffffffffffffffffff16815260200190815260200160002060080181905550600760008273ffffffffffffffffffffffffffffffffffffffff1673ffffffffffffffffffffffffffffffffffffffff1681526020019081526020016000206004018290806001815401808255809150509060018203906000526020600020016000909192909190916101000a81548173ffffffffffffffffffffffffffffffffffffffff021916908373ffffffffffffffffffffffffffffffffffffffff16021790555050600760008373ffffffffffffffffffffffffffffffffffffffff1673ffffffffffffffffffffffffffffffffffffffff1681526020019081526020016000206003018190806001815401808255809150509060018203906000526020600020016000909192909190916101000a81548173ffffffffffffffffffffffffffffffffffffffff021916908373ffffffffffffffffffffffffffffffffffffffff1602179055505060008090505b600760008373ffffffffffffffffffffffffffffffffffffffff1673ffffffffffffffffffffffffffffffffffffffff1681526020019081526020016000206003018054905081141515620007f557600760008473ffffffffffffffffffffffffffffffffffffffff1673ffffffffffffffffffffffffffffffffffffffff168152602001908152602001600020600301600760008473ffffffffffffffffffffffffffffffffffffffff1673ffffffffffffffffffffffffffffffffffffffff168152602001908152602001600020600301828154811015156200075957fe5b9060005260206000200160009054906101000a900473ffffffffffffffffffffffffffffffffffffffff1690806001815401808255809150509060018203906000526020600020016000909192909190916101000a81548173ffffffffffffffffffffffffffffffffffffffff021916908373ffffffffffffffffffffffffffffffffffffffff16021790555050808060010191505062000678565b506000600760003373ffffffffffffffffffffffffffffffffffffffff1673ffffffffffffffffffffffffffffffffffffffff168152602001908152602001600020600c01819055508073ffffffffffffffffffffffffffffffffffffffff168273ffffffffffffffffffffffffffffffffffffffff167fcc0bec1447060c88cdc5a739cf29cfa26c453574dd3f5b9e4dcc317d6401cb1c6001546040518082815260200191505060405180910390a35050565b612f2080620008b96000396000f3fe60806040526004361061010c576000357c010000000000000000000000000000000000000000000000000000000090048063085bea3c1461011157806323b62b751461018c57806325c18369146101b757806341a0894d14610248578063467d0119146102ee57806376db276414610319578063839d9bf7146103305780639335dcb71461035b5780639be572f6146103b2578063a87430ba146103dd578063b2596a67146104cd578063b3182ba51461051c578063bab3e8ad14610547578063bff1f9e1146105ed578063d772d74c14610618578063d90870251461067d578063f207564e146106e2578063f5d014a514610710578063f6838a7214610727578063f8b2cb4f14610755575b600080fd5b34801561011d57600080fd5b5061014a6004803603602081101561013457600080fd5b81019080803590602001909291905050506107ba565b604051808273ffffffffffffffffffffffffffffffffffffffff1673ffffffffffffffffffffffffffffffffffffffff16815260200191505060405180910390f35b34801561019857600080fd5b506101a16107ed565b6040518082815260200191505060405180910390f35b3480156101c357600080fd5b50610246600480360360608110156101da57600080fd5b81019080803573ffffffffffffffffffffffffffffffffffffffff169060200190929190803573ffffffffffffffffffffffffffffffffffffffff169060200190929190803573ffffffffffffffffffffffffffffffffffffffff1690602001909291905050506107f3565b005b34801561025457600080fd5b506102976004803603602081101561026b57600080fd5b81019080803573ffffffffffffffffffffffffffffffffffffffff169060200190929190505050610e57565b6040518080602001828103825283818151815260200191508051906020019060200280838360005b838110156102da5780820151818401526020810190506102bf565b505050509050019250505060405180910390f35b3480156102fa57600080fd5b50610303610f27565b6040518082815260200191505060405180910390f35b34801561032557600080fd5b5061032e610f2d565b005b34801561033c57600080fd5b506103456112af565b6040518082815260200191505060405180910390f35b34801561036757600080fd5b506103706112b5565b604051808273ffffffffffffffffffffffffffffffffffffffff1673ffffffffffffffffffffffffffffffffffffffff16815260200191505060405180910390f35b3480156103be57600080fd5b506103c76112da565b6040518082815260200191505060405180910390f35b3480156103e957600080fd5b5061042c6004803603602081101561040057600080fd5b81019080803573ffffffffffffffffffffffffffffffffffffffff1690602001909291905050506112e4565b604051808f81526020018e81526020018d73ffffffffffffffffffffffffffffffffffffffff1673ffffffffffffffffffffffffffffffffffffffff1681526020018c81526020018b81526020018a8152602001898152602001888152602001878152602001868152602001858152602001848152602001838152602001821515151581526020019e50505050505050505050505050505060405180910390f35b3480156104d957600080fd5b50610506600480360360208110156104f057600080fd5b810190808035906020019092919050505061137d565b6040518082815260200191505060405180910390f35b34801561052857600080fd5b506105316113a0565b6040518082815260200191505060405180910390f35b34801561055357600080fd5b506105966004803603602081101561056a57600080fd5b81019080803573ffffffffffffffffffffffffffffffffffffffff1690602001909291905050506113a6565b6040518080602001828103825283818151815260200191508051906020019060200280838360005b838110156105d95780820151818401526020810190506105be565b505050509050019250505060405180910390f35b3480156105f957600080fd5b50610602611476565b6040518082815260200191505060405180910390f35b34801561062457600080fd5b506106676004803603602081101561063b57600080fd5b81019080803573ffffffffffffffffffffffffffffffffffffffff16906020019092919050505061147c565b6040518082815260200191505060405180910390f35b34801561068957600080fd5b506106cc600480360360208110156106a057600080fd5b81019080803573ffffffffffffffffffffffffffffffffffffffff1690602001909291905050506114c8565b6040518082815260200191505060405180910390f35b61070e600480360360208110156106f857600080fd5b8101908080359060200190929190505050611514565b005b34801561071c57600080fd5b50610725611555565b005b6107536004803603602081101561073d57600080fd5b8101908080359060200190929190505050611d1b565b005b34801561076157600080fd5b506107a46004803603602081101561077857600080fd5b81019080803573ffffffffffffffffffffffffffffffffffffffff169060200190929190505050612592565b6040518082815260200191505060405180910390f35b60086020528060005260406000206000915054906101000a900473ffffffffffffffffffffffffffffffffffffffff1681565b60025481565b6000606460025460320281151561080657fe5b04905060006064600254601e0281151561081c57fe5b0490506000606460025460140281151561083257fe5b04905060648360140281151561084457fe5b048303600760008873ffffffffffffffffffffffffffffffffffffffff1673ffffffffffffffffffffffffffffffffffffffff168152602001908152602001600020600e01600082825401925050819055506064826014028115156108a557fe5b048203600760008773ffffffffffffffffffffffffffffffffffffffff1673ffffffffffffffffffffffffffffffffffffffff168152602001908152602001600020600e016000828254019250508190555060648160140281151561090657fe5b048103600760008673ffffffffffffffffffffffffffffffffffffffff1673ffffffffffffffffffffffffffffffffffffffff168152602001908152602001600020600e01600082825401925050819055508573ffffffffffffffffffffffffffffffffffffffff1673ffffffffffffffffffffffffffffffffffffffff166108fc600760008973ffffffffffffffffffffffffffffffffffffffff1673ffffffffffffffffffffffffffffffffffffffff168152602001908152602001600020600e01549081150290604051600060405180830381858888f193505050501580156109f6573d6000803e3d6000fd5b508473ffffffffffffffffffffffffffffffffffffffff1673ffffffffffffffffffffffffffffffffffffffff166108fc600760008873ffffffffffffffffffffffffffffffffffffffff1673ffffffffffffffffffffffffffffffffffffffff168152602001908152602001600020600e01549081150290604051600060405180830381858888f19350505050158015610a95573d6000803e3d6000fd5b508373ffffffffffffffffffffffffffffffffffffffff1673ffffffffffffffffffffffffffffffffffffffff166108fc600760008773ffffffffffffffffffffffffffffffffffffffff1673ffffffffffffffffffffffffffffffffffffffff168152602001908152602001600020600e01549081150290604051600060405180830381858888f19350505050158015610b34573d6000803e3d6000fd5b506000600281905550606483600a02811515610b4c57fe5b04600760008873ffffffffffffffffffffffffffffffffffffffff1673ffffffffffffffffffffffffffffffffffffffff168152602001908152602001600020600b0160008282540192505081905550606482600a02811515610bab57fe5b04600760008773ffffffffffffffffffffffffffffffffffffffff1673ffffffffffffffffffffffffffffffffffffffff168152602001908152602001600020600b0160008282540192505081905550606481600a02811515610c0a57fe5b04600760008673ffffffffffffffffffffffffffffffffffffffff1673ffffffffffffffffffffffffffffffffffffffff168152602001908152602001600020600b0160008282540192505081905550606483600a02811515610c6957fe5b04600760008873ffffffffffffffffffffffffffffffffffffffff1673ffffffffffffffffffffffffffffffffffffffff168152602001908152602001600020600d0160008282540192505081905550606482600a02811515610cc857fe5b04600760008773ffffffffffffffffffffffffffffffffffffffff1673ffffffffffffffffffffffffffffffffffffffff168152602001908152602001600020600d0160008282540192505081905550606481600a02811515610d2757fe5b04600760008673ffffffffffffffffffffffffffffffffffffffff1673ffffffffffffffffffffffffffffffffffffffff168152602001908152602001600020600d01600082825401925050819055506000600760008873ffffffffffffffffffffffffffffffffffffffff1673ffffffffffffffffffffffffffffffffffffffff168152602001908152602001600020600601819055506000600760008773ffffffffffffffffffffffffffffffffffffffff1673ffffffffffffffffffffffffffffffffffffffff168152602001908152602001600020600601819055506000600760008673ffffffffffffffffffffffffffffffffffffffff1673ffffffffffffffffffffffffffffffffffffffff16815260200190815260200160002060060181905550505050505050565b6060600760008373ffffffffffffffffffffffffffffffffffffffff1673ffffffffffffffffffffffffffffffffffffffff168152602001908152602001600020600401805480602002602001604051908101604052809291908181526020018280548015610f1b57602002820191906000526020600020905b8160009054906101000a900473ffffffffffffffffffffffffffffffffffffffff1673ffffffffffffffffffffffffffffffffffffffff1681526020019060010190808311610ed1575b50505050509050919050565b60045481565b600654600760003373ffffffffffffffffffffffffffffffffffffffff1673ffffffffffffffffffffffffffffffffffffffff168152602001908152602001600020600b01541015151561100f576040517f08c379a00000000000000000000000000000000000000000000000000000000081526004018080602001828103825260258152602001807f7265746f70757020616d6f756e74206973206c657373207468616e20656e747281526020017f794665657300000000000000000000000000000000000000000000000000000081525060400191505060405180910390fd5b600654600760003373ffffffffffffffffffffffffffffffffffffffff1673ffffffffffffffffffffffffffffffffffffffff168152602001908152602001600020600b0160008282540392505081905550606460146006540281151561107257fe5b046002600082825401925050819055506000606460506006540281151561109557fe5b0490506000600760003373ffffffffffffffffffffffffffffffffffffffff1673ffffffffffffffffffffffffffffffffffffffff16815260200190815260200160002060020160009054906101000a900473ffffffffffffffffffffffffffffffffffffffff16905060646014830281151561110e57fe5b048203600760008373ffffffffffffffffffffffffffffffffffffffff1673ffffffffffffffffffffffffffffffffffffffff168152602001908152602001600020600101600082825401925050819055508073ffffffffffffffffffffffffffffffffffffffff1673ffffffffffffffffffffffffffffffffffffffff166108fc60646014850281151561119f57fe5b0484039081150290604051600060405180830381858888f193505050501580156111cd573d6000803e3d6000fd5b506064601483028115156111dd57fe5b046002600082825401925050819055506064600a83028115156111fc57fe5b04600760008373ffffffffffffffffffffffffffffffffffffffff1673ffffffffffffffffffffffffffffffffffffffff168152602001908152602001600020600b01600082825401925050819055506064600a830281151561125b57fe5b04600760008373ffffffffffffffffffffffffffffffffffffffff1673ffffffffffffffffffffffffffffffffffffffff168152602001908152602001600020600d01600082825401925050819055505050565b60035481565b6000809054906101000a900473ffffffffffffffffffffffffffffffffffffffff1681565b6000600154905090565b60076020528060005260406000206000915090508060000154908060010154908060020160009054906101000a900473ffffffffffffffffffffffffffffffffffffffff169080600501549080600601549080600701549080600801549080600901549080600a01549080600b01549080600c01549080600d01549080600e01549080600f0160009054906101000a900460ff1690508e565b60058181548110151561138c57fe5b906000526020600020016000915090505481565b60065481565b6060600760008373ffffffffffffffffffffffffffffffffffffffff1673ffffffffffffffffffffffffffffffffffffffff16815260200190815260200160002060030180548060200260200160405190810160405280929190818152602001828054801561146a57602002820191906000526020600020905b8160009054906101000a900473ffffffffffffffffffffffffffffffffffffffff1673ffffffffffffffffffffffffffffffffffffffff1681526020019060010190808311611420575b50505050509050919050565b60015481565b6000600760008373ffffffffffffffffffffffffffffffffffffffff1673ffffffffffffffffffffffffffffffffffffffff168152602001908152602001600020600901549050919050565b6000600760008373ffffffffffffffffffffffffffffffffffffffff1673ffffffffffffffffffffffffffffffffffffffff168152602001908152602001600020600801549050919050565b611552336008600084815260200190815260200160002060009054906101000a900473ffffffffffffffffffffffffffffffffffffffff16346125de565b50565b60006001600760003373ffffffffffffffffffffffffffffffffffffffff1673ffffffffffffffffffffffffffffffffffffffff168152602001908152602001600020600c0154019050600760003373ffffffffffffffffffffffffffffffffffffffff1673ffffffffffffffffffffffffffffffffffffffff168152602001908152602001600020600f0160009054906101000a900460ff161515611663576040517f08c379a000000000000000000000000000000000000000000000000000000000815260040180806020018281038252600e8152602001807f55736572206e6f7420657869737400000000000000000000000000000000000081525060200191505060405180910390fd5b6000811180156116745750600a8111155b15156116e8576040517f08c379a000000000000000000000000000000000000000000000000000000000815260040180806020018281038252600f8152602001807f496e636f7272656374206c6576656c000000000000000000000000000000000081525060200191505060405180910390fd5b60018114156117ca576005600181548110151561170157fe5b9060005260206000200154600760003373ffffffffffffffffffffffffffffffffffffffff1673ffffffffffffffffffffffffffffffffffffffff168152602001908152602001600020600d0154101515156117c5576040517f08c379a000000000000000000000000000000000000000000000000000000000815260040180806020018281038252600f8152602001807f496e636f72726563742056616c7565000000000000000000000000000000000081525060200191505060405180910390fd5b61189e565b6005818154811015156117d957fe5b9060005260206000200154600760003373ffffffffffffffffffffffffffffffffffffffff1673ffffffffffffffffffffffffffffffffffffffff168152602001908152602001600020600d01541015151561189d576040517f08c379a000000000000000000000000000000000000000000000000000000000815260040180806020018281038252600f8152602001807f496e636f72726563742056616c7565000000000000000000000000000000000081525060200191505060405180910390fd5b5b6000606460146005848154811015156118b357fe5b9060005260206000200154028115156118c857fe5b0490506064816014028115156118da57fe5b04810360076000600760003373ffffffffffffffffffffffffffffffffffffffff1673ffffffffffffffffffffffffffffffffffffffff16815260200190815260200160002060020160009054906101000a900473ffffffffffffffffffffffffffffffffffffffff1673ffffffffffffffffffffffffffffffffffffffff1673ffffffffffffffffffffffffffffffffffffffff168152602001908152602001600020600a0160008282540192505081905550606481600a0281151561199d57fe5b0460076000600760003373ffffffffffffffffffffffffffffffffffffffff1673ffffffffffffffffffffffffffffffffffffffff16815260200190815260200160002060020160009054906101000a900473ffffffffffffffffffffffffffffffffffffffff1673ffffffffffffffffffffffffffffffffffffffff1673ffffffffffffffffffffffffffffffffffffffff168152602001908152602001600020600b0160008282540192505081905550606481600a02811515611a5e57fe5b0460076000600760003373ffffffffffffffffffffffffffffffffffffffff1673ffffffffffffffffffffffffffffffffffffffff16815260200190815260200160002060020160009054906101000a900473ffffffffffffffffffffffffffffffffffffffff1673ffffffffffffffffffffffffffffffffffffffff1673ffffffffffffffffffffffffffffffffffffffff168152602001908152602001600020600d0160008282540192505081905550600760003373ffffffffffffffffffffffffffffffffffffffff1673ffffffffffffffffffffffffffffffffffffffff16815260200190815260200160002060020160009054906101000a900473ffffffffffffffffffffffffffffffffffffffff1673ffffffffffffffffffffffffffffffffffffffff1673ffffffffffffffffffffffffffffffffffffffff166108fc829081150290604051600060405180830381858888f19350505050158015611bce573d6000803e3d6000fd5b50600582815481101515611bde57fe5b9060005260206000200154600760003373ffffffffffffffffffffffffffffffffffffffff1673ffffffffffffffffffffffffffffffffffffffff168152602001908152602001600020600d01600082825403925050819055506001600760003373ffffffffffffffffffffffffffffffffffffffff1673ffffffffffffffffffffffffffffffffffffffff168152602001908152602001600020600c016000828254019250508190555060646050600584815481101515611c9c57fe5b906000526020600020015402811515611cb157fe5b046004600082825401925050819055503373ffffffffffffffffffffffffffffffffffffffff167f9ea70f0eb33d898c3336ecf2c0e3cf1c0195c13ad3fbcb34447777dbfd5ff2d08342604051808381526020018281526020019250505060405180910390a25050565b600760003373ffffffffffffffffffffffffffffffffffffffff1673ffffffffffffffffffffffffffffffffffffffff168152602001908152602001600020600c015481111515611dd4576040517f08c379a00000000000000000000000000000000000000000000000000000000081526004018080602001828103825260178152602001807f416c726561647920707572636861736564206c6576656c00000000000000000081525060200191505060405180910390fd5b600760003373ffffffffffffffffffffffffffffffffffffffff1673ffffffffffffffffffffffffffffffffffffffff168152602001908152602001600020600f0160009054906101000a900460ff161515611e98576040517f08c379a000000000000000000000000000000000000000000000000000000000815260040180806020018281038252600e8152602001807f55736572206e6f7420657869737400000000000000000000000000000000000081525060200191505060405180910390fd5b600081118015611ea95750600a8111155b1515611f1d576040517f08c379a000000000000000000000000000000000000000000000000000000000815260040180806020018281038252600f8152602001807f496e636f7272656374206c6576656c000000000000000000000000000000000081525060200191505060405180910390fd5b6001811415611fbc5760056001815481101515611f3657fe5b906000526020600020015434141515611fb7576040517f08c379a000000000000000000000000000000000000000000000000000000000815260040180806020018281038252600f8152602001807f496e636f72726563742056616c7565000000000000000000000000000000000081525060200191505060405180910390fd5b61212f565b600581815481101515611fcb57fe5b90600052602060002001543414151561204c576040517f08c379a000000000000000000000000000000000000000000000000000000000815260040180806020018281038252600f8152602001807f496e636f72726563742056616c7565000000000000000000000000000000000081525060200191505060405180910390fd5b60018103600760003373ffffffffffffffffffffffffffffffffffffffff1673ffffffffffffffffffffffffffffffffffffffff1681526020019081526020016000206008015414151561212e576040517f08c379a00000000000000000000000000000000000000000000000000000000081526004018080602001828103825260288152602001807f596f7520686176656e2774207075726368617365642070726576696f7573206c81526020017f6576656c2079657400000000000000000000000000000000000000000000000081525060400191505060405180910390fd5b5b60006064601460058481548110151561214457fe5b90600052602060002001540281151561215957fe5b04905060648160140281151561216b57fe5b04810360076000600760003373ffffffffffffffffffffffffffffffffffffffff1673ffffffffffffffffffffffffffffffffffffffff16815260200190815260200160002060020160009054906101000a900473ffffffffffffffffffffffffffffffffffffffff1673ffffffffffffffffffffffffffffffffffffffff1673ffffffffffffffffffffffffffffffffffffffff168152602001908152602001600020600a0160008282540192505081905550606481600a0281151561222e57fe5b0460076000600760003373ffffffffffffffffffffffffffffffffffffffff1673ffffffffffffffffffffffffffffffffffffffff16815260200190815260200160002060020160009054906101000a900473ffffffffffffffffffffffffffffffffffffffff1673ffffffffffffffffffffffffffffffffffffffff1673ffffffffffffffffffffffffffffffffffffffff168152602001908152602001600020600b0160008282540192505081905550606481600a028115156122ef57fe5b0460076000600760003373ffffffffffffffffffffffffffffffffffffffff1673ffffffffffffffffffffffffffffffffffffffff16815260200190815260200160002060020160009054906101000a900473ffffffffffffffffffffffffffffffffffffffff1673ffffffffffffffffffffffffffffffffffffffff1673ffffffffffffffffffffffffffffffffffffffff168152602001908152602001600020600d0160008282540192505081905550600760003373ffffffffffffffffffffffffffffffffffffffff1673ffffffffffffffffffffffffffffffffffffffff16815260200190815260200160002060020160009054906101000a900473ffffffffffffffffffffffffffffffffffffffff1673ffffffffffffffffffffffffffffffffffffffff1673ffffffffffffffffffffffffffffffffffffffff166108fc829081150290604051600060405180830381858888f1935050505015801561245f573d6000803e3d6000fd5b50600a6001600760003373ffffffffffffffffffffffffffffffffffffffff1673ffffffffffffffffffffffffffffffffffffffff16815260200190815260200160002060080154011015612500576001600760003373ffffffffffffffffffffffffffffffffffffffff1673ffffffffffffffffffffffffffffffffffffffff168152602001908152602001600020600c01600082825401925050819055505b6064605060058481548110151561251357fe5b90600052602060002001540281151561252857fe5b046004600082825401925050819055503373ffffffffffffffffffffffffffffffffffffffff167f9ea70f0eb33d898c3336ecf2c0e3cf1c0195c13ad3fbcb34447777dbfd5ff2d08342604051808381526020018281526020019250505060405180910390a25050565b6000600760008373ffffffffffffffffffffffffffffffffffffffff1673ffffffffffffffffffffffffffffffffffffffff168152602001908152602001600020600101549050919050565b6000600760008573ffffffffffffffffffffffffffffffffffffffff1673ffffffffffffffffffffffffffffffffffffffff16815260200190815260200160002060000154141515612698576040517f08c379a00000000000000000000000000000000000000000000000000000000081526004018080602001828103825260178152602001807f557365722061726c65616479207265676973746572656400000000000000000081525060200191505060405180910390fd5b6000600760008473ffffffffffffffffffffffffffffffffffffffff1673ffffffffffffffffffffffffffffffffffffffff1681526020019081526020016000206000015414151515612753576040517f08c379a00000000000000000000000000000000000000000000000000000000081526004018080602001828103825260168152602001807f496e7669746572206e6f7420726567697374657265640000000000000000000081525060200191505060405180910390fd5b60065481101515156127cd576040517f08c379a00000000000000000000000000000000000000000000000000000000081526004018080602001828103825260128152602001807f496e73756666696369656e742066756e6473000000000000000000000000000081525060200191505060405180910390fd5b60646014600654028115156127de57fe5b046002600082825401925050819055506000606460506006540281151561280157fe5b04905060646014820281151561281357fe5b048103600760008573ffffffffffffffffffffffffffffffffffffffff1673ffffffffffffffffffffffffffffffffffffffff168152602001908152602001600020600101600082825401925050819055508273ffffffffffffffffffffffffffffffffffffffff1673ffffffffffffffffffffffffffffffffffffffff166108fc6064601484028115156128a457fe5b0483039081150290604051600060405180830381858888f193505050501580156128d2573d6000803e3d6000fd5b506064600a82028115156128e257fe5b04600760008573ffffffffffffffffffffffffffffffffffffffff1673ffffffffffffffffffffffffffffffffffffffff168152602001908152602001600020600b01600082825401925050819055506064600a820281151561294157fe5b04600760008573ffffffffffffffffffffffffffffffffffffffff1673ffffffffffffffffffffffffffffffffffffffff168152602001908152602001600020600d016000828254019250508190555061299b84846129fc565b6001600760003373ffffffffffffffffffffffffffffffffffffffff1673ffffffffffffffffffffffffffffffffffffffff168152602001908152602001600020600f0160006101000a81548160ff02191690831515021790555050505050565b600160008154809291906001019190505550600154600760008473ffffffffffffffffffffffffffffffffffffffff1673ffffffffffffffffffffffffffffffffffffffff1681526020019081526020016000206000018190555080600760008473ffffffffffffffffffffffffffffffffffffffff1673ffffffffffffffffffffffffffffffffffffffff16815260200190815260200160002060020160006101000a81548173ffffffffffffffffffffffffffffffffffffffff021916908373ffffffffffffffffffffffffffffffffffffffff1602179055508160086000600154815260200190815260200160002060006101000a81548173ffffffffffffffffffffffffffffffffffffffff021916908373ffffffffffffffffffffffffffffffffffffffff1602179055506000600760008473ffffffffffffffffffffffffffffffffffffffff1673ffffffffffffffffffffffffffffffffffffffff16815260200190815260200160002060080181905550600760008273ffffffffffffffffffffffffffffffffffffffff1673ffffffffffffffffffffffffffffffffffffffff1681526020019081526020016000206004018290806001815401808255809150509060018203906000526020600020016000909192909190916101000a81548173ffffffffffffffffffffffffffffffffffffffff021916908373ffffffffffffffffffffffffffffffffffffffff16021790555050600760008373ffffffffffffffffffffffffffffffffffffffff1673ffffffffffffffffffffffffffffffffffffffff1681526020019081526020016000206003018190806001815401808255809150509060018203906000526020600020016000909192909190916101000a81548173ffffffffffffffffffffffffffffffffffffffff021916908373ffffffffffffffffffffffffffffffffffffffff1602179055505060008090505b600760008373ffffffffffffffffffffffffffffffffffffffff1673ffffffffffffffffffffffffffffffffffffffff1681526020019081526020016000206003018054905081141515612e4057600760008473ffffffffffffffffffffffffffffffffffffffff1673ffffffffffffffffffffffffffffffffffffffff168152602001908152602001600020600301600760008473ffffffffffffffffffffffffffffffffffffffff1673ffffffffffffffffffffffffffffffffffffffff16815260200190815260200160002060030182815481101515612da557fe5b9060005260206000200160009054906101000a900473ffffffffffffffffffffffffffffffffffffffff1690806001815401808255809150509060018203906000526020600020016000909192909190916101000a81548173ffffffffffffffffffffffffffffffffffffffff021916908373ffffffffffffffffffffffffffffffffffffffff160217905550508080600101915050612cc6565b506000600760003373ffffffffffffffffffffffffffffffffffffffff1673ffffffffffffffffffffffffffffffffffffffff168152602001908152602001600020600c01819055508073ffffffffffffffffffffffffffffffffffffffff168273ffffffffffffffffffffffffffffffffffffffff167fcc0bec1447060c88cdc5a739cf29cfa26c453574dd3f5b9e4dcc317d6401cb1c6001546040518082815260200191505060405180910390a3505056fea165627a7a723058209bcf435ec2cdf6f89f46504fe161c0a877c82df1c1e5502198c1210ff3938fe20029",
  "source": "//SPDX-License-Identifier: UNLICENSED\npragma solidity >=0.5.1;\n\n// steps\n//  1. Register User by paying entry entryFees 0.01 (working fine)\n//  2. Transfer 80% directly to invitor\n//  3. Buy level if previous level is already buyed\n//  4. After completeing 1 level auto upgrade to next level\n//  5. When upgrading level pay 8% to all uplines and 20% to direct inviter\n\ncontract MLM {\n    address public ownerWallet;\n    uint256 public totalUsers;\n    uint256 public mainWallet;\n    uint256 public personalWallet;\n    uint256 public distributionWallet;\n\n    struct User {\n        uint256 id;\n        uint256 balanceReceived;\n        address inviter;\n        address[] uplines;\n        address[] referrals;\n        uint256 totalReferals;\n        uint256 dailyReferals;\n        uint256 uplinesSize;\n        uint256 level;\n        uint256 paymentReceivedFor;\n        uint256 upgradeAmountReceived;\n        uint256 retopupWallet;\n        uint256 levelsPurchased;\n        uint256 autoBuyLevelWallet;\n        uint256 rewardWallet;\n        bool isExist;\n    }\n\n    uint256[] public levels;\n    uint256 public entryFees;\n\n    mapping(address => User) public users;\n    mapping(uint256 => address) public users_ids;\n\n    event Register(address indexed addr, address indexed inviter, uint256 id);\n    event BuyLevel(\n        address indexed addr,\n        address indexed upline,\n        uint8 level,\n        uint40 expires\n    );\n    event buyLevelEvent(address indexed _user, uint256 _level, uint256 _time);\n\n    constructor() public {\n        totalUsers = 0;\n        entryFees = 0.01 ether;\n        ownerWallet = msg.sender;\n        levels.push(0.01 ether);\n        levels.push(0.025 ether);\n        levels.push(0.005 ether);\n        levels.push(0.075 ether);\n        levels.push(0.100 ether);\n        levels.push(0.125 ether);\n        levels.push(0.150 ether);\n        levels.push(0.175 ether);\n        levels.push(0.200 ether);\n        levels.push(0.225 ether);\n        levels.push(0.250 ether);\n        newUser(msg.sender, address(0));\n        users[msg.sender].levelsPurchased = 10;\n        users[msg.sender].level = 1;\n        users[msg.sender].isExist = true;\n    }\n\n    function newUser(address _addr, address _inviter) private {\n        totalUsers++;\n        users[_addr].id = totalUsers;\n        users[_addr].inviter = _inviter;\n        users_ids[totalUsers] = _addr;\n        users[_addr].level = 0;\n        users[_inviter].referrals.push(_addr);\n        users[_addr].uplines.push(_inviter);\n        for (uint256 i = 0; i != users[_inviter].uplines.length; i++) {\n            users[_addr].uplines.push(users[_inviter].uplines[i]);\n        }\n        users[msg.sender].levelsPurchased = 0;\n        emit Register(_addr, _inviter, totalUsers);\n    }\n\n    function _register(\n        address _user,\n        address _inviter,\n        uint256 _value\n    ) private {\n        require(users[_user].id == 0, \"User arleady registered\");\n        require(users[_inviter].id != 0, \"Inviter not registered\");\n        require(_value >= entryFees, \"Insufficient funds\");\n        mainWallet += (entryFees * 20) / 100;\n        uint256 referalMoney = (entryFees * 80) / 100;\n        users[_inviter].balanceReceived += (referalMoney -\n            (referalMoney * 20) /\n            100);\n        address(uint256(_inviter)).transfer(\n            referalMoney - (referalMoney * 20) / 100\n        );\n        users[_inviter].retopupWallet += (referalMoney * 10) / 100;\n        users[_inviter].autoBuyLevelWallet += (referalMoney * 10) / 100;\n        newUser(_user, _inviter);\n        users[msg.sender].isExist = true;\n    }\n\n    function register(uint256 _inviter_id) external payable {\n        _register(msg.sender, users_ids[_inviter_id], msg.value);\n    }\n\n    function buyLevel(uint256 _level) public payable {\n        require(\n            _level > users[msg.sender].levelsPurchased,\n            \"Already purchased level\"\n        );\n        require(users[msg.sender].isExist, \"User not exist\");\n        require(_level > 0 && _level <= 10, \"Incorrect level\");\n\n        if (_level == 1) {\n            require(msg.value == levels[1], \"Incorrect Value\");\n        } else {\n            require(msg.value == levels[_level], \"Incorrect Value\");\n            require(\n                users[msg.sender].level == _level - 1,\n                \"You haven't purchased previous level yet\"\n            );\n        }\n\n        // Transfer 20% to direct sponsor\n        uint256 upgradeAmount = (levels[_level] * 20) / 100;\n        users[users[msg.sender].inviter]\n            .upgradeAmountReceived += (upgradeAmount -\n            (20 * upgradeAmount) /\n            100);\n        users[users[msg.sender].inviter].retopupWallet +=\n            (10 * upgradeAmount) /\n            100;\n        users[users[msg.sender].inviter].autoBuyLevelWallet +=\n            (10 * upgradeAmount) /\n            100;\n\n        address(uint256(users[msg.sender].inviter)).transfer(upgradeAmount);\n\n        // address(uint256(users[msg.sender].inviter)).transfer((levels[_level]*20)/100);\n        if (users[msg.sender].level + 1 < 10)\n            users[msg.sender].levelsPurchased += 1;\n\n        //80% distribution isleft\n        distributionWallet += (levels[_level] * 80) / 100;\n        emit buyLevelEvent(msg.sender, _level, now);\n    }\n\n    function autoBuyLevel() public {\n        // find the current level of user\n        uint256 _level = users[msg.sender].levelsPurchased + 1;\n        // if user have previous level then buy next level automatically\n        require(users[msg.sender].isExist, \"User not exist\");\n        require(_level > 0 && _level <= 10, \"Incorrect level\");\n\n        if (_level == 1) {\n            require(\n                users[msg.sender].autoBuyLevelWallet >= levels[1],\n                \"Incorrect Value\"\n            );\n        } else {\n            require(\n                users[msg.sender].autoBuyLevelWallet >= levels[_level],\n                \"Incorrect Value\"\n            );\n        }\n\n        // Transfer 20% to direct sponsor\n        uint256 upgradeAmount = (levels[_level] * 20) / 100;\n        users[users[msg.sender].inviter]\n            .upgradeAmountReceived += (upgradeAmount -\n            (20 * upgradeAmount) /\n            100);\n        users[users[msg.sender].inviter].retopupWallet +=\n            (10 * upgradeAmount) /\n            100;\n        users[users[msg.sender].inviter].autoBuyLevelWallet +=\n            (10 * upgradeAmount) /\n            100;\n\n        address(uint256(users[msg.sender].inviter)).transfer(upgradeAmount);\n\n        users[msg.sender].autoBuyLevelWallet -= levels[_level];\n        users[msg.sender].levelsPurchased += 1;\n\n        distributionWallet += (levels[_level] * 80) / 100;\n        emit buyLevelEvent(msg.sender, _level, now);\n    }\n\n    function getCurrentLevel(address _add) public view returns (uint256) {\n        return users[_add].level;\n    }\n\n    function getBalance(address _add) public view returns (uint256) {\n        return users[_add].balanceReceived;\n    }\n\n    function getPaymentReceivedFor(address _add) public view returns (uint256) {\n        return users[_add].paymentReceivedFor;\n    }\n\n    function getReferrals(address _add) public view returns (address[] memory) {\n        return users[_add].referrals;\n    }\n\n    function getUplines(address _add) public view returns (address[] memory) {\n        return users[_add].uplines;\n    }\n\n    function retopUp() public {\n        require(\n            users[msg.sender].retopupWallet >= entryFees,\n            \"retopup amount is less than entryFees\"\n        );\n        users[msg.sender].retopupWallet -= entryFees;\n        mainWallet += (entryFees * 20) / 100;\n        uint256 referalMoney = (entryFees * 80) / 100;\n        address _inviter = users[msg.sender].inviter;\n        users[_inviter].balanceReceived += (referalMoney -\n            (referalMoney * 20) /\n            100);\n        address(uint256(_inviter)).transfer(\n            referalMoney - (referalMoney * 20) / 100\n        );\n        mainWallet += (referalMoney * 20) / 100;\n        users[_inviter].retopupWallet += (referalMoney * 10) / 100;\n        users[_inviter].autoBuyLevelWallet += (referalMoney * 10) / 100;\n    }\n\n    function giveReward(\n        address _winner1,\n        address _winner2,\n        address _winner3\n    ) public {\n        uint256 first = (50 * mainWallet) / 100;\n        uint256 second = (30 * mainWallet) / 100;\n        uint256 third = (20 * mainWallet) / 100;\n        users[_winner1].rewardWallet += (first - (20 * first) / 100);\n        users[_winner2].rewardWallet += (second - (20 * second) / 100);\n        users[_winner3].rewardWallet += (third - (20 * third) / 100);\n\n        address(uint256(_winner1)).transfer(users[_winner1].rewardWallet);\n        address(uint256(_winner2)).transfer(users[_winner2].rewardWallet);\n        address(uint256(_winner3)).transfer(users[_winner3].rewardWallet);\n\n        mainWallet = 0;\n        users[_winner1].retopupWallet += (10 * first) / 100;\n        users[_winner2].retopupWallet += (10 * second) / 100;\n        users[_winner3].retopupWallet += (10 * third) / 100;\n\n        users[_winner1].autoBuyLevelWallet += (10 * first) / 100;\n        users[_winner2].autoBuyLevelWallet += (10 * second) / 100;\n        users[_winner3].autoBuyLevelWallet += (10 * third) / 100;\n\n        users[_winner1].dailyReferals = 0;\n        users[_winner2].dailyReferals = 0;\n        users[_winner3].dailyReferals = 0;\n    }\n\n    function getTotalUsers() public view returns(uint256){\n        return totalUsers;\n    }\n}",
  "sourcePath": "/home/neha/Blockchain-project/contracts/MyContract.sol",
  "compiler": {
    "name": "solc",
    "version": "0.5.1+commit.c8a2cb62.Emscripten.clang"
  },
  "schemaVersion": "3.1.0",
  "updatedAt": "2020-07-27T06:48:47.479Z",
  "networkType": "ethereum",
  "devdoc": {
    "methods": {}
  },
  "userdoc": {
    "methods": {}
  }
}