{
  "contractName": "MLM",
  "abi": [
    {
      "constant": true,
      "inputs": [
        {
          "name": "",
          "type": "uint256"
        }
      ],
      "name": "users_ids",
      "outputs": [
        {
          "name": "",
          "type": "address"
        }
      ],
      "payable": false,
      "stateMutability": "view",
      "type": "function",
      "signature": "0x085bea3c"
    },
    {
      "constant": true,
      "inputs": [],
      "name": "mainWallet",
      "outputs": [
        {
          "name": "",
          "type": "uint256"
        }
      ],
      "payable": false,
      "stateMutability": "view",
      "type": "function",
      "signature": "0x23b62b75"
    },
    {
      "constant": true,
      "inputs": [],
      "name": "personalWallet",
      "outputs": [
        {
          "name": "",
          "type": "uint256"
        }
      ],
      "payable": false,
      "stateMutability": "view",
      "type": "function",
      "signature": "0x839d9bf7"
    },
    {
      "constant": true,
      "inputs": [],
      "name": "ownerWallet",
      "outputs": [
        {
          "name": "",
          "type": "address"
        }
      ],
      "payable": false,
      "stateMutability": "view",
      "type": "function",
      "signature": "0x9335dcb7"
    },
    {
      "constant": true,
      "inputs": [
        {
          "name": "",
          "type": "address"
        }
      ],
      "name": "users",
      "outputs": [
        {
          "name": "id",
          "type": "uint256"
        },
        {
          "name": "balanceReceived",
          "type": "uint256"
        },
        {
          "name": "inviter",
          "type": "address"
        },
        {
          "name": "uplinesSize",
          "type": "uint256"
        },
        {
          "name": "level",
          "type": "uint256"
        },
        {
          "name": "paymentReceivedFor",
          "type": "uint256"
        },
        {
          "name": "retopupWallet",
          "type": "uint256"
        },
        {
          "name": "levelsPurchased",
          "type": "uint256"
        },
        {
          "name": "autoBuyLevelWallet",
          "type": "uint256"
        },
        {
          "name": "isExist",
          "type": "bool"
        }
      ],
      "payable": false,
      "stateMutability": "view",
      "type": "function",
      "signature": "0xa87430ba"
    },
    {
      "constant": true,
      "inputs": [
        {
          "name": "",
          "type": "uint256"
        }
      ],
      "name": "levels",
      "outputs": [
        {
          "name": "",
          "type": "uint256"
        }
      ],
      "payable": false,
      "stateMutability": "view",
      "type": "function",
      "signature": "0xb2596a67"
    },
    {
      "constant": true,
      "inputs": [],
      "name": "entryFees",
      "outputs": [
        {
          "name": "",
          "type": "uint256"
        }
      ],
      "payable": false,
      "stateMutability": "view",
      "type": "function",
      "signature": "0xb3182ba5"
    },
    {
      "constant": true,
      "inputs": [],
      "name": "totalUsers",
      "outputs": [
        {
          "name": "",
          "type": "uint256"
        }
      ],
      "payable": false,
      "stateMutability": "view",
      "type": "function",
      "signature": "0xbff1f9e1"
    },
    {
      "constant": true,
      "inputs": [],
      "name": "rewardWallet",
      "outputs": [
        {
          "name": "",
          "type": "uint256"
        }
      ],
      "payable": false,
      "stateMutability": "view",
      "type": "function",
      "signature": "0xfb75b2c7"
    },
    {
      "inputs": [],
      "payable": false,
      "stateMutability": "nonpayable",
      "type": "constructor",
      "signature": "constructor"
    },
    {
      "anonymous": false,
      "inputs": [
        {
          "indexed": true,
          "name": "addr",
          "type": "address"
        },
        {
          "indexed": true,
          "name": "inviter",
          "type": "address"
        },
        {
          "indexed": false,
          "name": "id",
          "type": "uint256"
        }
      ],
      "name": "Register",
      "type": "event",
      "signature": "0xcc0bec1447060c88cdc5a739cf29cfa26c453574dd3f5b9e4dcc317d6401cb1c"
    },
    {
      "anonymous": false,
      "inputs": [
        {
          "indexed": true,
          "name": "addr",
          "type": "address"
        },
        {
          "indexed": true,
          "name": "upline",
          "type": "address"
        },
        {
          "indexed": false,
          "name": "level",
          "type": "uint8"
        },
        {
          "indexed": false,
          "name": "expires",
          "type": "uint40"
        }
      ],
      "name": "BuyLevel",
      "type": "event",
      "signature": "0xa931ae1a242aa90f4b50bb7ca26c1da1f3aa69f4e75468b217d9e1b9d8a6fc13"
    },
    {
      "anonymous": false,
      "inputs": [
        {
          "indexed": true,
          "name": "_user",
          "type": "address"
        },
        {
          "indexed": false,
          "name": "_level",
          "type": "uint256"
        },
        {
          "indexed": false,
          "name": "_time",
          "type": "uint256"
        }
      ],
      "name": "buyLevelEvent",
      "type": "event",
      "signature": "0x9ea70f0eb33d898c3336ecf2c0e3cf1c0195c13ad3fbcb34447777dbfd5ff2d0"
    },
    {
      "constant": false,
      "inputs": [
        {
          "name": "_inviter_id",
          "type": "uint256"
        }
      ],
      "name": "register",
      "outputs": [],
      "payable": true,
      "stateMutability": "payable",
      "type": "function",
      "signature": "0xf207564e"
    },
    {
      "constant": false,
      "inputs": [
        {
          "name": "_level",
          "type": "uint256"
        }
      ],
      "name": "buyLevel",
      "outputs": [],
      "payable": true,
      "stateMutability": "payable",
      "type": "function",
      "signature": "0xf6838a72"
    },
    {
      "constant": false,
      "inputs": [],
      "name": "autoBuyLevel",
      "outputs": [],
      "payable": false,
      "stateMutability": "nonpayable",
      "type": "function",
      "signature": "0xf5d014a5"
    },
    {
      "constant": true,
      "inputs": [
        {
          "name": "_add",
          "type": "address"
        }
      ],
      "name": "getCurrentLevel",
      "outputs": [
        {
          "name": "",
          "type": "uint256"
        }
      ],
      "payable": false,
      "stateMutability": "view",
      "type": "function",
      "signature": "0xd9087025"
    },
    {
      "constant": true,
      "inputs": [
        {
          "name": "_add",
          "type": "address"
        }
      ],
      "name": "getBalance",
      "outputs": [
        {
          "name": "",
          "type": "uint256"
        }
      ],
      "payable": false,
      "stateMutability": "view",
      "type": "function",
      "signature": "0xf8b2cb4f"
    },
    {
      "constant": true,
      "inputs": [
        {
          "name": "_add",
          "type": "address"
        }
      ],
      "name": "getPaymentReceivedFor",
      "outputs": [
        {
          "name": "",
          "type": "uint256"
        }
      ],
      "payable": false,
      "stateMutability": "view",
      "type": "function",
      "signature": "0xd772d74c"
    },
    {
      "constant": true,
      "inputs": [
        {
          "name": "_add",
          "type": "address"
        }
      ],
      "name": "getReferrals",
      "outputs": [
        {
          "name": "",
          "type": "address[]"
        }
      ],
      "payable": false,
      "stateMutability": "view",
      "type": "function",
      "signature": "0x41a0894d"
    },
    {
      "constant": true,
      "inputs": [
        {
          "name": "_add",
          "type": "address"
        }
      ],
      "name": "getUplines",
      "outputs": [
        {
          "name": "",
          "type": "address[]"
        }
      ],
      "payable": false,
      "stateMutability": "view",
      "type": "function",
      "signature": "0xbab3e8ad"
    },
    {
      "constant": false,
      "inputs": [],
      "name": "retopUp",
      "outputs": [],
      "payable": false,
      "stateMutability": "nonpayable",
      "type": "function",
      "signature": "0x76db2764"
    },
    {
      "constant": false,
      "inputs": [
        {
          "name": "_winner1",
          "type": "address"
        },
        {
          "name": "_winner2",
          "type": "address"
        },
        {
          "name": "_winner3",
          "type": "address"
        }
      ],
      "name": "giveReward",
      "outputs": [],
      "payable": false,
      "stateMutability": "nonpayable",
      "type": "function",
      "signature": "0x25c18369"
    }
  ],
  "bytecode": "0x60806040523480156200001157600080fd5b506000600181905550662386f26fc10000600681905550336000806101000a81548173ffffffffffffffffffffffffffffffffffffffff021916908373ffffffffffffffffffffffffffffffffffffffff1602179055506005662386f26fc10000908060018154018082558091505090600182039060005260206000200160009091929091909150555060056658d15e17628000908060018154018082558091505090600182039060005260206000200160009091929091909150555060056611c37937e080009080600181540180825580915050906001820390600052602060002001600090919290919091505550600567010a741a462780009080600181540180825580915050906001820390600052602060002001600090919290919091505550600567016345785d8a0000908060018154018082558091505090600182039060005260206000200160009091929091909150555060056701bc16d674ec800090806001815401808255809150509060018203906000526020600020016000909192909190915055506005670214e8348c4f00009080600181540180825580915050906001820390600052602060002001600090919290919091505550600567026db992a3b18000908060018154018082558091505090600182039060005260206000200160009091929091909150555060056702c68af0bb1400009080600181540180825580915050906001820390600052602060002001600090919290919091505550600567031f5c4ed2768000908060018154018082558091505090600182039060005260206000200160009091929091909150555060056703782dace9d900009080600181540180825580915050906001820390600052602060002001600090919290919091505550620002bd33600062000366640100000000026401000000009004565b600a600760003373ffffffffffffffffffffffffffffffffffffffff1673ffffffffffffffffffffffffffffffffffffffff168152602001908152602001600020600901819055506001600760003373ffffffffffffffffffffffffffffffffffffffff1673ffffffffffffffffffffffffffffffffffffffff168152602001908152602001600020600b0160006101000a81548160ff02191690831515021790555062000861565b600160008154809291906001019190505550600154600760008473ffffffffffffffffffffffffffffffffffffffff1673ffffffffffffffffffffffffffffffffffffffff1681526020019081526020016000206000018190555080600760008473ffffffffffffffffffffffffffffffffffffffff1673ffffffffffffffffffffffffffffffffffffffff16815260200190815260200160002060020160006101000a81548173ffffffffffffffffffffffffffffffffffffffff021916908373ffffffffffffffffffffffffffffffffffffffff1602179055508160086000600154815260200190815260200160002060006101000a81548173ffffffffffffffffffffffffffffffffffffffff021916908373ffffffffffffffffffffffffffffffffffffffff1602179055506000600760008473ffffffffffffffffffffffffffffffffffffffff1673ffffffffffffffffffffffffffffffffffffffff16815260200190815260200160002060060181905550600760008273ffffffffffffffffffffffffffffffffffffffff1673ffffffffffffffffffffffffffffffffffffffff1681526020019081526020016000206004018290806001815401808255809150509060018203906000526020600020016000909192909190916101000a81548173ffffffffffffffffffffffffffffffffffffffff021916908373ffffffffffffffffffffffffffffffffffffffff16021790555050600760008373ffffffffffffffffffffffffffffffffffffffff1673ffffffffffffffffffffffffffffffffffffffff1681526020019081526020016000206003018190806001815401808255809150509060018203906000526020600020016000909192909190916101000a81548173ffffffffffffffffffffffffffffffffffffffff021916908373ffffffffffffffffffffffffffffffffffffffff1602179055505060008090505b600760008373ffffffffffffffffffffffffffffffffffffffff1673ffffffffffffffffffffffffffffffffffffffff1681526020019081526020016000206003018054905081141515620007ad57600760008473ffffffffffffffffffffffffffffffffffffffff1673ffffffffffffffffffffffffffffffffffffffff168152602001908152602001600020600301600760008473ffffffffffffffffffffffffffffffffffffffff1673ffffffffffffffffffffffffffffffffffffffff168152602001908152602001600020600301828154811015156200071157fe5b9060005260206000200160009054906101000a900473ffffffffffffffffffffffffffffffffffffffff1690806001815401808255809150509060018203906000526020600020016000909192909190916101000a81548173ffffffffffffffffffffffffffffffffffffffff021916908373ffffffffffffffffffffffffffffffffffffffff16021790555050808060010191505062000630565b506000600760003373ffffffffffffffffffffffffffffffffffffffff1673ffffffffffffffffffffffffffffffffffffffff168152602001908152602001600020600901819055508073ffffffffffffffffffffffffffffffffffffffff168273ffffffffffffffffffffffffffffffffffffffff167fcc0bec1447060c88cdc5a739cf29cfa26c453574dd3f5b9e4dcc317d6401cb1c6001546040518082815260200191505060405180910390a35050565b61239280620008716000396000f3fe608060405260043610610101576000357c010000000000000000000000000000000000000000000000000000000090048063085bea3c1461010657806323b62b751461018157806325c18369146101ac57806341a0894d1461023d57806376db2764146102e3578063839d9bf7146102fa5780639335dcb714610325578063a87430ba1461037c578063b2596a6714610450578063b3182ba51461049f578063bab3e8ad146104ca578063bff1f9e114610570578063d772d74c1461059b578063d908702514610600578063f207564e14610665578063f5d014a514610693578063f6838a72146106aa578063f8b2cb4f146106d8578063fb75b2c71461073d575b600080fd5b34801561011257600080fd5b5061013f6004803603602081101561012957600080fd5b8101908080359060200190929190505050610768565b604051808273ffffffffffffffffffffffffffffffffffffffff1673ffffffffffffffffffffffffffffffffffffffff16815260200191505060405180910390f35b34801561018d57600080fd5b5061019661079b565b6040518082815260200191505060405180910390f35b3480156101b857600080fd5b5061023b600480360360608110156101cf57600080fd5b81019080803573ffffffffffffffffffffffffffffffffffffffff169060200190929190803573ffffffffffffffffffffffffffffffffffffffff169060200190929190803573ffffffffffffffffffffffffffffffffffffffff1690602001909291905050506107a1565b005b34801561024957600080fd5b5061028c6004803603602081101561026057600080fd5b81019080803573ffffffffffffffffffffffffffffffffffffffff16906020019092919050505061090a565b6040518080602001828103825283818151815260200191508051906020019060200280838360005b838110156102cf5780820151818401526020810190506102b4565b505050509050019250505060405180910390f35b3480156102ef57600080fd5b506102f86109da565b005b34801561030657600080fd5b5061030f610c5a565b6040518082815260200191505060405180910390f35b34801561033157600080fd5b5061033a610c60565b604051808273ffffffffffffffffffffffffffffffffffffffff1673ffffffffffffffffffffffffffffffffffffffff16815260200191505060405180910390f35b34801561038857600080fd5b506103cb6004803603602081101561039f57600080fd5b81019080803573ffffffffffffffffffffffffffffffffffffffff169060200190929190505050610c85565b604051808b81526020018a81526020018973ffffffffffffffffffffffffffffffffffffffff1673ffffffffffffffffffffffffffffffffffffffff168152602001888152602001878152602001868152602001858152602001848152602001838152602001821515151581526020019a505050505050505050505060405180910390f35b34801561045c57600080fd5b506104896004803603602081101561047357600080fd5b8101908080359060200190929190505050610d06565b6040518082815260200191505060405180910390f35b3480156104ab57600080fd5b506104b4610d29565b6040518082815260200191505060405180910390f35b3480156104d657600080fd5b50610519600480360360208110156104ed57600080fd5b81019080803573ffffffffffffffffffffffffffffffffffffffff169060200190929190505050610d2f565b6040518080602001828103825283818151815260200191508051906020019060200280838360005b8381101561055c578082015181840152602081019050610541565b505050509050019250505060405180910390f35b34801561057c57600080fd5b50610585610dff565b6040518082815260200191505060405180910390f35b3480156105a757600080fd5b506105ea600480360360208110156105be57600080fd5b81019080803573ffffffffffffffffffffffffffffffffffffffff169060200190929190505050610e05565b6040518082815260200191505060405180910390f35b34801561060c57600080fd5b5061064f6004803603602081101561062357600080fd5b81019080803573ffffffffffffffffffffffffffffffffffffffff169060200190929190505050610e51565b6040518082815260200191505060405180910390f35b6106916004803603602081101561067b57600080fd5b8101908080359060200190929190505050610e9d565b005b34801561069f57600080fd5b506106a8610ede565b005b6106d6600480360360208110156106c057600080fd5b81019080803590602001909291905050506114c1565b005b3480156106e457600080fd5b50610727600480360360208110156106fb57600080fd5b81019080803573ffffffffffffffffffffffffffffffffffffffff169060200190929190505050611a4d565b6040518082815260200191505060405180910390f35b34801561074957600080fd5b50610752611a99565b6040518082815260200191505060405180910390f35b60086020528060005260406000206000915054906101000a900473ffffffffffffffffffffffffffffffffffffffff1681565b60025481565b600060646002546032028115156107b457fe5b04905060006064600254601e028115156107ca57fe5b049050600060646002546014028115156107e057fe5b0490508573ffffffffffffffffffffffffffffffffffffffff1673ffffffffffffffffffffffffffffffffffffffff166108fc849081150290604051600060405180830381858888f1935050505015801561083f573d6000803e3d6000fd5b508473ffffffffffffffffffffffffffffffffffffffff1673ffffffffffffffffffffffffffffffffffffffff166108fc839081150290604051600060405180830381858888f1935050505015801561089c573d6000803e3d6000fd5b508373ffffffffffffffffffffffffffffffffffffffff1673ffffffffffffffffffffffffffffffffffffffff166108fc829081150290604051600060405180830381858888f193505050501580156108f9573d6000803e3d6000fd5b506000600281905550505050505050565b6060600760008373ffffffffffffffffffffffffffffffffffffffff1673ffffffffffffffffffffffffffffffffffffffff1681526020019081526020016000206004018054806020026020016040519081016040528092919081815260200182805480156109ce57602002820191906000526020600020905b8160009054906101000a900473ffffffffffffffffffffffffffffffffffffffff1673ffffffffffffffffffffffffffffffffffffffff1681526020019060010190808311610984575b50505050509050919050565b600654600760003373ffffffffffffffffffffffffffffffffffffffff1673ffffffffffffffffffffffffffffffffffffffff16815260200190815260200160002060080154101515610c5857600654600760003373ffffffffffffffffffffffffffffffffffffffff1673ffffffffffffffffffffffffffffffffffffffff168152602001908152602001600020600801600082825403925050819055506064601460065402811515610a8a57fe5b0460026000828254019250508190555060006064605060065402811515610aad57fe5b0490506000600760003373ffffffffffffffffffffffffffffffffffffffff1673ffffffffffffffffffffffffffffffffffffffff16815260200190815260200160002060020160009054906101000a900473ffffffffffffffffffffffffffffffffffffffff169050606460148302811515610b2657fe5b048203600760008373ffffffffffffffffffffffffffffffffffffffff1673ffffffffffffffffffffffffffffffffffffffff16815260200190815260200160002060010160008282540192505081905550606460148302811515610b8757fe5b046002600082825401925050819055506064600a8302811515610ba657fe5b04600760003373ffffffffffffffffffffffffffffffffffffffff1673ffffffffffffffffffffffffffffffffffffffff168152602001908152602001600020600801600082825401925050819055506064600a8302811515610c0557fe5b04600760003373ffffffffffffffffffffffffffffffffffffffff1673ffffffffffffffffffffffffffffffffffffffff168152602001908152602001600020600a016000828254019250508190555050505b565b60035481565b6000809054906101000a900473ffffffffffffffffffffffffffffffffffffffff1681565b60076020528060005260406000206000915090508060000154908060010154908060020160009054906101000a900473ffffffffffffffffffffffffffffffffffffffff169080600501549080600601549080600701549080600801549080600901549080600a01549080600b0160009054906101000a900460ff1690508a565b600581815481101515610d1557fe5b906000526020600020016000915090505481565b60065481565b6060600760008373ffffffffffffffffffffffffffffffffffffffff1673ffffffffffffffffffffffffffffffffffffffff168152602001908152602001600020600301805480602002602001604051908101604052809291908181526020018280548015610df357602002820191906000526020600020905b8160009054906101000a900473ffffffffffffffffffffffffffffffffffffffff1673ffffffffffffffffffffffffffffffffffffffff1681526020019060010190808311610da9575b50505050509050919050565b60015481565b6000600760008373ffffffffffffffffffffffffffffffffffffffff1673ffffffffffffffffffffffffffffffffffffffff168152602001908152602001600020600701549050919050565b6000600760008373ffffffffffffffffffffffffffffffffffffffff1673ffffffffffffffffffffffffffffffffffffffff168152602001908152602001600020600601549050919050565b610edb336008600084815260200190815260200160002060009054906101000a900473ffffffffffffffffffffffffffffffffffffffff1634611a9f565b50565b60006001600760003373ffffffffffffffffffffffffffffffffffffffff1673ffffffffffffffffffffffffffffffffffffffff16815260200190815260200160002060090154019050600760003373ffffffffffffffffffffffffffffffffffffffff1673ffffffffffffffffffffffffffffffffffffffff168152602001908152602001600020600b0160009054906101000a900460ff161515610fec576040517f08c379a000000000000000000000000000000000000000000000000000000000815260040180806020018281038252600e8152602001807f55736572206e6f7420657869737400000000000000000000000000000000000081525060200191505060405180910390fd5b600081118015610ffd5750600a8111155b1515611071576040517f08c379a000000000000000000000000000000000000000000000000000000000815260040180806020018281038252600f8152602001807f496e636f7272656374206c6576656c000000000000000000000000000000000081525060200191505060405180910390fd5b6001811415611153576005600181548110151561108a57fe5b9060005260206000200154600760003373ffffffffffffffffffffffffffffffffffffffff1673ffffffffffffffffffffffffffffffffffffffff168152602001908152602001600020600a01541015151561114e576040517f08c379a000000000000000000000000000000000000000000000000000000000815260040180806020018281038252600f8152602001807f496e636f72726563742056616c7565000000000000000000000000000000000081525060200191505060405180910390fd5b611227565b60058181548110151561116257fe5b9060005260206000200154600760003373ffffffffffffffffffffffffffffffffffffffff1673ffffffffffffffffffffffffffffffffffffffff168152602001908152602001600020600a015410151515611226576040517f08c379a000000000000000000000000000000000000000000000000000000000815260040180806020018281038252600f8152602001807f496e636f72726563742056616c7565000000000000000000000000000000000081525060200191505060405180910390fd5b5b600760003373ffffffffffffffffffffffffffffffffffffffff1673ffffffffffffffffffffffffffffffffffffffff16815260200190815260200160002060020160009054906101000a900473ffffffffffffffffffffffffffffffffffffffff1673ffffffffffffffffffffffffffffffffffffffff1673ffffffffffffffffffffffffffffffffffffffff166108fc606460146005858154811015156112cc57fe5b9060005260206000200154028115156112e157fe5b049081150290604051600060405180830381858888f1935050505015801561130d573d6000803e3d6000fd5b50600a6001600760003373ffffffffffffffffffffffffffffffffffffffff1673ffffffffffffffffffffffffffffffffffffffff168152602001908152602001600020600601540110156113ae576001600760003373ffffffffffffffffffffffffffffffffffffffff1673ffffffffffffffffffffffffffffffffffffffff168152602001908152602001600020600601600082825401925050819055505b6005818154811015156113bd57fe5b9060005260206000200154600760003373ffffffffffffffffffffffffffffffffffffffff1673ffffffffffffffffffffffffffffffffffffffff168152602001908152602001600020600a01600082825403925050819055506001600760003373ffffffffffffffffffffffffffffffffffffffff1673ffffffffffffffffffffffffffffffffffffffff168152602001908152602001600020600901600082825401925050819055503373ffffffffffffffffffffffffffffffffffffffff167f9ea70f0eb33d898c3336ecf2c0e3cf1c0195c13ad3fbcb34447777dbfd5ff2d08242604051808381526020018281526020019250505060405180910390a250565b600760003373ffffffffffffffffffffffffffffffffffffffff1673ffffffffffffffffffffffffffffffffffffffff168152602001908152602001600020600b0160009054906101000a900460ff161515611585576040517f08c379a000000000000000000000000000000000000000000000000000000000815260040180806020018281038252600e8152602001807f55736572206e6f7420657869737400000000000000000000000000000000000081525060200191505060405180910390fd5b6000811180156115965750600a8111155b151561160a576040517f08c379a000000000000000000000000000000000000000000000000000000000815260040180806020018281038252600f8152602001807f496e636f7272656374206c6576656c000000000000000000000000000000000081525060200191505060405180910390fd5b60018114156116a9576005600181548110151561162357fe5b9060005260206000200154341415156116a4576040517f08c379a000000000000000000000000000000000000000000000000000000000815260040180806020018281038252600f8152602001807f496e636f72726563742056616c7565000000000000000000000000000000000081525060200191505060405180910390fd5b61181c565b6005818154811015156116b857fe5b906000526020600020015434141515611739576040517f08c379a000000000000000000000000000000000000000000000000000000000815260040180806020018281038252600f8152602001807f496e636f72726563742056616c7565000000000000000000000000000000000081525060200191505060405180910390fd5b60018103600760003373ffffffffffffffffffffffffffffffffffffffff1673ffffffffffffffffffffffffffffffffffffffff1681526020019081526020016000206006015414151561181b576040517f08c379a00000000000000000000000000000000000000000000000000000000081526004018080602001828103825260288152602001807f596f7520686176656e2774207075726368617365642070726576696f7573206c81526020017f6576656c2079657400000000000000000000000000000000000000000000000081525060400191505060405180910390fd5b5b600760003373ffffffffffffffffffffffffffffffffffffffff1673ffffffffffffffffffffffffffffffffffffffff16815260200190815260200160002060020160009054906101000a900473ffffffffffffffffffffffffffffffffffffffff1673ffffffffffffffffffffffffffffffffffffffff1673ffffffffffffffffffffffffffffffffffffffff166108fc606460146005858154811015156118c157fe5b9060005260206000200154028115156118d657fe5b049081150290604051600060405180830381858888f19350505050158015611902573d6000803e3d6000fd5b50600a6001600760003373ffffffffffffffffffffffffffffffffffffffff1673ffffffffffffffffffffffffffffffffffffffff168152602001908152602001600020600601540110156119a3576001600760003373ffffffffffffffffffffffffffffffffffffffff1673ffffffffffffffffffffffffffffffffffffffff168152602001908152602001600020600601600082825401925050819055505b6001600760003373ffffffffffffffffffffffffffffffffffffffff1673ffffffffffffffffffffffffffffffffffffffff168152602001908152602001600020600901600082825401925050819055503373ffffffffffffffffffffffffffffffffffffffff167f9ea70f0eb33d898c3336ecf2c0e3cf1c0195c13ad3fbcb34447777dbfd5ff2d08242604051808381526020018281526020019250505060405180910390a250565b6000600760008373ffffffffffffffffffffffffffffffffffffffff1673ffffffffffffffffffffffffffffffffffffffff168152602001908152602001600020600101549050919050565b60045481565b6000600760008573ffffffffffffffffffffffffffffffffffffffff1673ffffffffffffffffffffffffffffffffffffffff16815260200190815260200160002060000154141515611b59576040517f08c379a00000000000000000000000000000000000000000000000000000000081526004018080602001828103825260178152602001807f557365722061726c65616479207265676973746572656400000000000000000081525060200191505060405180910390fd5b6000600760008473ffffffffffffffffffffffffffffffffffffffff1673ffffffffffffffffffffffffffffffffffffffff1681526020019081526020016000206000015414151515611c14576040517f08c379a00000000000000000000000000000000000000000000000000000000081526004018080602001828103825260158152602001807f55706c696e65206e6f742072656769737465726564000000000000000000000081525060200191505060405180910390fd5b6006548110151515611c8e576040517f08c379a00000000000000000000000000000000000000000000000000000000081526004018080602001828103825260128152602001807f496e73756666696369656e742066756e6473000000000000000000000000000081525060200191505060405180910390fd5b6064601460065402811515611c9f57fe5b0460026000828254019250508190555060006064605060065402811515611cc257fe5b049050606460148202811515611cd457fe5b048103600760008573ffffffffffffffffffffffffffffffffffffffff1673ffffffffffffffffffffffffffffffffffffffff16815260200190815260200160002060010160008282540192505081905550606460148202811515611d3557fe5b046002600082825401925050819055506064600a8202811515611d5457fe5b04600760008673ffffffffffffffffffffffffffffffffffffffff1673ffffffffffffffffffffffffffffffffffffffff168152602001908152602001600020600801600082825401925050819055506064600a8202811515611db357fe5b04600760008673ffffffffffffffffffffffffffffffffffffffff1673ffffffffffffffffffffffffffffffffffffffff168152602001908152602001600020600a0160008282540192505081905550611e0d8484611e6e565b6001600760003373ffffffffffffffffffffffffffffffffffffffff1673ffffffffffffffffffffffffffffffffffffffff168152602001908152602001600020600b0160006101000a81548160ff02191690831515021790555050505050565b600160008154809291906001019190505550600154600760008473ffffffffffffffffffffffffffffffffffffffff1673ffffffffffffffffffffffffffffffffffffffff1681526020019081526020016000206000018190555080600760008473ffffffffffffffffffffffffffffffffffffffff1673ffffffffffffffffffffffffffffffffffffffff16815260200190815260200160002060020160006101000a81548173ffffffffffffffffffffffffffffffffffffffff021916908373ffffffffffffffffffffffffffffffffffffffff1602179055508160086000600154815260200190815260200160002060006101000a81548173ffffffffffffffffffffffffffffffffffffffff021916908373ffffffffffffffffffffffffffffffffffffffff1602179055506000600760008473ffffffffffffffffffffffffffffffffffffffff1673ffffffffffffffffffffffffffffffffffffffff16815260200190815260200160002060060181905550600760008273ffffffffffffffffffffffffffffffffffffffff1673ffffffffffffffffffffffffffffffffffffffff1681526020019081526020016000206004018290806001815401808255809150509060018203906000526020600020016000909192909190916101000a81548173ffffffffffffffffffffffffffffffffffffffff021916908373ffffffffffffffffffffffffffffffffffffffff16021790555050600760008373ffffffffffffffffffffffffffffffffffffffff1673ffffffffffffffffffffffffffffffffffffffff1681526020019081526020016000206003018190806001815401808255809150509060018203906000526020600020016000909192909190916101000a81548173ffffffffffffffffffffffffffffffffffffffff021916908373ffffffffffffffffffffffffffffffffffffffff1602179055505060008090505b600760008373ffffffffffffffffffffffffffffffffffffffff1673ffffffffffffffffffffffffffffffffffffffff16815260200190815260200160002060030180549050811415156122b257600760008473ffffffffffffffffffffffffffffffffffffffff1673ffffffffffffffffffffffffffffffffffffffff168152602001908152602001600020600301600760008473ffffffffffffffffffffffffffffffffffffffff1673ffffffffffffffffffffffffffffffffffffffff1681526020019081526020016000206003018281548110151561221757fe5b9060005260206000200160009054906101000a900473ffffffffffffffffffffffffffffffffffffffff1690806001815401808255809150509060018203906000526020600020016000909192909190916101000a81548173ffffffffffffffffffffffffffffffffffffffff021916908373ffffffffffffffffffffffffffffffffffffffff160217905550508080600101915050612138565b506000600760003373ffffffffffffffffffffffffffffffffffffffff1673ffffffffffffffffffffffffffffffffffffffff168152602001908152602001600020600901819055508073ffffffffffffffffffffffffffffffffffffffff168273ffffffffffffffffffffffffffffffffffffffff167fcc0bec1447060c88cdc5a739cf29cfa26c453574dd3f5b9e4dcc317d6401cb1c6001546040518082815260200191505060405180910390a3505056fea165627a7a72305820874bf3db26a1a331ad0390484c4529c04780ead08c05034c684a14da6d7180c30029",
  "source": "//SPDX-License-Identifier: UNLICENSED\npragma solidity >=0.5.1;\n\n// steps\n//  1. Register User by paying entry entryFees 0.01 (working fine)\n//  2. Transfer 80% directly to invitor\n//  3. Buy level if previous level is already buyed\n//  4. After completeing 1 level auto upgrade to nex level\n//  5. When upgrading level pay 8% to all uplines and 20% to direct inviter\n\ncontract MLM {\n    address public ownerWallet;\n    uint256 public totalUsers;\n    uint256 public mainWallet;\n    uint256 public personalWallet;\n    uint256 public rewardWallet;\n\n    struct User {\n        uint256 id;\n        uint256 balanceReceived;\n        address inviter;\n        address[] uplines;\n        address[] referrals;\n        uint256 uplinesSize;\n        uint256 level;\n        uint256 paymentReceivedFor;\n        uint256 retopupWallet;\n        uint256 levelsPurchased;\n        uint256 autoBuyLevelWallet;\n        bool isExist;\n    }\n\n    uint256[] public levels;\n    uint256 public entryFees;\n\n    mapping(address => User) public users;\n    mapping(uint256 => address) public users_ids;\n\n    event Register(address indexed addr, address indexed inviter, uint256 id);\n    event BuyLevel(\n        address indexed addr,\n        address indexed upline,\n        uint8 level,\n        uint40 expires\n    );\n    event buyLevelEvent(address indexed _user, uint256 _level, uint256 _time);\n\n    constructor() public {\n        totalUsers = 0;\n        entryFees = 0.01 ether;\n        ownerWallet = msg.sender;\n        levels.push(0.01 ether);\n        levels.push(0.025 ether);\n        levels.push(0.005 ether);\n        levels.push(0.075 ether);\n        levels.push(0.100 ether);\n        levels.push(0.125 ether);\n        levels.push(0.150 ether);\n        levels.push(0.175 ether);\n        levels.push(0.200 ether);\n        levels.push(0.225 ether);\n        levels.push(0.250 ether);\n        newUser(msg.sender, address(0));\n        users[msg.sender].levelsPurchased = 10;\n        users[msg.sender].isExist = true;\n    }\n\n    function newUser(address _addr, address _inviter) private {\n        totalUsers++;\n        users[_addr].id = totalUsers;\n        users[_addr].inviter = _inviter;\n        users_ids[totalUsers] = _addr;\n        users[_addr].level = 0;\n        users[_inviter].referrals.push(_addr);\n        users[_addr].uplines.push(_inviter);\n        for (uint256 i = 0; i != users[_inviter].uplines.length; i++) {\n            users[_addr].uplines.push(users[_inviter].uplines[i]);\n        }\n        users[msg.sender].levelsPurchased = 0;\n        emit Register(_addr, _inviter, totalUsers);\n    }\n\n    function _register(\n        address _user,\n        address _inviter,\n        uint256 _value\n    ) private {\n        require(users[_user].id == 0, \"User arleady registered\");\n        require(users[_inviter].id != 0, \"Upline not registered\");\n        require(_value >= entryFees, \"Insufficient funds\");\n        mainWallet += (entryFees * 20) / 100;\n        uint256 referalMoney = (entryFees * 80) / 100;\n        users[_inviter].balanceReceived += (referalMoney -\n            (referalMoney * 20) /\n            100);\n        mainWallet += (referalMoney * 20) / 100;\n        users[_user].retopupWallet += (referalMoney * 10) / 100;\n        users[_user].autoBuyLevelWallet += (referalMoney * 10) / 100;\n        newUser(_user, _inviter);\n        users[msg.sender].isExist = true;\n    }\n\n    function register(uint256 _inviter_id) external payable {\n        _register(msg.sender, users_ids[_inviter_id], msg.value);\n    }\n\n    function buyLevel(uint256 _level) public payable {\n        require(users[msg.sender].isExist, \"User not exist\");\n        require(_level > 0 && _level <= 10, \"Incorrect level\");\n\n        if (_level == 1) {\n            require(msg.value == levels[1], \"Incorrect Value\");\n        } else {\n            require(msg.value == levels[_level], \"Incorrect Value\");\n            require(\n                users[msg.sender].level == _level - 1,\n                \"You haven't purchased previous level yet\"\n            );\n        }\n\n        // Transfer 20% to direct sponsor\n        address(uint256(users[msg.sender].inviter)).transfer(\n            (levels[_level] * 20) / 100\n        );\n        if (users[msg.sender].level + 1 < 10) users[msg.sender].level += 1;\n\n        users[msg.sender].levelsPurchased += 1;\n\n        //80% distribution isleft\n        //\n        emit buyLevelEvent(msg.sender, _level, now);\n    }\n\n    function autoBuyLevel() public {\n        // find the current level of user\n        uint256 _levelPurchased = users[msg.sender].levelsPurchased + 1;\n        // if user have previous level then buy next level automatically\n        require(users[msg.sender].isExist, \"User not exist\");\n        require(\n            _levelPurchased > 0 && _levelPurchased <= 10,\n            \"Incorrect level\"\n        );\n\n        if (_levelPurchased == 1) {\n            require(\n                users[msg.sender].autoBuyLevelWallet >= levels[1],\n                \"Incorrect Value\"\n            );\n        } else {\n            require(\n                users[msg.sender].autoBuyLevelWallet >= levels[_levelPurchased],\n                \"Incorrect Value\"\n            );\n        }\n\n        // Transfer 20% to direct sponsor\n        address(uint256(users[msg.sender].inviter)).transfer(\n            (levels[_levelPurchased] * 20) / 100\n        );\n        if (users[msg.sender].level + 1 < 10) users[msg.sender].level += 1;\n\n        users[msg.sender].autoBuyLevelWallet -= levels[_levelPurchased];\n        users[msg.sender].levelsPurchased += 1;\n        emit buyLevelEvent(msg.sender, _levelPurchased, now);\n    }\n\n    function getCurrentLevel(address _add) public view returns (uint256) {\n        return users[_add].level;\n    }\n\n    function getBalance(address _add) public view returns (uint256) {\n        return users[_add].balanceReceived;\n    }\n\n    function getPaymentReceivedFor(address _add) public view returns (uint256) {\n        return users[_add].paymentReceivedFor;\n    }\n\n    function getReferrals(address _add) public view returns (address[] memory) {\n        return users[_add].referrals;\n    }\n\n    function getUplines(address _add) public view returns (address[] memory) {\n        return users[_add].uplines;\n    }\n\n    function retopUp() public {\n        if (users[msg.sender].retopupWallet >= entryFees) {\n            users[msg.sender].retopupWallet -= entryFees;\n            mainWallet += (entryFees * 20) / 100;\n            uint256 referalMoney = (entryFees * 80) / 100;\n            address _inviter = users[msg.sender].inviter;\n            users[_inviter].balanceReceived += (referalMoney -\n                (referalMoney * 20) /\n                100);\n            mainWallet += (referalMoney * 20) / 100;\n            users[msg.sender].retopupWallet += (referalMoney * 10) / 100;\n            users[msg.sender].autoBuyLevelWallet += (referalMoney * 10) / 100;\n        }\n    }\n\n    function giveReward(\n        address _winner1,\n        address _winner2,\n        address _winner3\n    ) public {\n        uint256 first = (50 * mainWallet) / 100;\n        uint256 second = (30 * mainWallet) / 100;\n        uint256 third = (20 * mainWallet) / 100;\n        address(uint256(_winner1)).transfer(first);\n        address(uint256(_winner2)).transfer(second);\n        address(uint256(_winner3)).transfer(third);\n        mainWallet = 0;\n    }\n}",
  "sourcePath": "/home/rachna/freelance_project/contracts/MyContract.sol",
  "compiler": {
    "name": "solc",
    "version": "0.5.1+commit.c8a2cb62.Emscripten.clang"
  },
  "schemaVersion": "3.0.1",
  "updatedAt": "2020-07-26T09:28:23.869Z",
  "devdoc": {
    "methods": {}
  },
  "userdoc": {
    "methods": {}
  }
}